:020000005B287B
:0E0006008312031325088A00240882000800D4
:1000140003208A110A128000840AA40A0319A50A7B
:08002400F003031D0A28080087
:10002C0083120313F101F20127087202031D202829
:10003C002608710203182F283130FC00B230FD0065
:10004C00FD0B2628FC0B26280000F10A0319F20AE6
:04005C001A28080056
:1000600083120313F1010A30710203184528871522
:100070001030FD00FD0B3A28000087113E30FD00D6
:0C008000FD0B40280000F10A33280800A6
:10008C0083120313F101F20127087202031D502899
:10009C002608710203185A28D030FD00FD0B542895
:0A00AC00F10A0319F20A4A280800BD
:1000B600033083120313A000A1010130A200A301A3
:1000C600FF3083168500FF308600E7308700033057
:1000D60081003020D030FD00FD0B6F280712861AF4
:1000E6007C280530A0000030A1000130A2000030BD
:1000F600A300061A86283C30A0000030A100053077
:10010600A2000030A300061990283C30A000003061
:10011600A1001E30A2000030A30086189A283C30A9
:10012600A0000030A1003C30A2000030A3008715DB
:1001360007162008A6002108A700462087110712E7
:100146002208A6002308A70016206830FD00FD0B34
:06015600AA287228AD2862
:02400E001B0095
:00000001FF
